{
  "_format": "hh-sol-artifact-1",
  "contractName": "SqueezePortal",
  "sourceName": "contracts/Squeeze.sol",
  "abi": [
    {
      "inputs": [],
      "stateMutability": "payable",
      "type": "constructor"
    },
    {
      "anonymous": false,
      "inputs": [
        {
          "indexed": true,
          "internalType": "address",
          "name": "from",
          "type": "address"
        },
        {
          "indexed": false,
          "internalType": "uint256",
          "name": "timestamp",
          "type": "uint256"
        },
        {
          "indexed": false,
          "internalType": "string",
          "name": "message",
          "type": "string"
        }
      ],
      "name": "NewSqueeze",
      "type": "event"
    },
    {
      "inputs": [],
      "name": "getAllSqueezes",
      "outputs": [
        {
          "components": [
            {
              "internalType": "address",
              "name": "squeezer",
              "type": "address"
            },
            {
              "internalType": "string",
              "name": "message",
              "type": "string"
            },
            {
              "internalType": "uint256",
              "name": "timestamp",
              "type": "uint256"
            }
          ],
          "internalType": "struct SqueezePortal.Squeeze[]",
          "name": "",
          "type": "tuple[]"
        }
      ],
      "stateMutability": "view",
      "type": "function"
    },
    {
      "inputs": [],
      "name": "getTotalSqueezes",
      "outputs": [
        {
          "internalType": "uint256",
          "name": "",
          "type": "uint256"
        }
      ],
      "stateMutability": "view",
      "type": "function"
    },
    {
      "inputs": [
        {
          "internalType": "address",
          "name": "",
          "type": "address"
        }
      ],
      "name": "lastSqueezedAt",
      "outputs": [
        {
          "internalType": "uint256",
          "name": "",
          "type": "uint256"
        }
      ],
      "stateMutability": "view",
      "type": "function"
    },
    {
      "inputs": [
        {
          "internalType": "string",
          "name": "_message",
          "type": "string"
        }
      ],
      "name": "squeeze",
      "outputs": [],
      "stateMutability": "nonpayable",
      "type": "function"
    }
  ],
  "bytecode": "0x6080604052606444426200001491906200002c565b62000020919062000093565b60018190555062000129565b6000620000398262000089565b9150620000468362000089565b9250827fffffffffffffffffffffffffffffffffffffffffffffffffffffffffffffffff038211156200007e576200007d620000cb565b5b828201905092915050565b6000819050919050565b6000620000a08262000089565b9150620000ad8362000089565b925082620000c057620000bf620000fa565b5b828206905092915050565b7f4e487b7100000000000000000000000000000000000000000000000000000000600052601160045260246000fd5b7f4e487b7100000000000000000000000000000000000000000000000000000000600052601260045260246000fd5b610e0a80620001396000396000f3fe608060405234801561001057600080fd5b506004361061004c5760003560e01c8063a98ddb6c14610051578063bccb45d21461006f578063d9f80e661461009f578063de284392146100bd575b600080fd5b6100596100d9565b60405161006691906109ac565b60405180910390f35b610089600480360381019061008491906106a7565b6100e2565b60405161009691906109ac565b60405180910390f35b6100a76100fa565b6040516100b4919061092a565b60405180910390f35b6100d760048036038101906100d291906106d0565b61024b565b005b60008054905090565b60036020528060005260406000206000915090505481565b60606002805480602002602001604051908101604052809291908181526020016000905b8282101561024257838290600052602060002090600302016040518060600160405290816000820160009054906101000a900473ffffffffffffffffffffffffffffffffffffffff1673ffffffffffffffffffffffffffffffffffffffff1673ffffffffffffffffffffffffffffffffffffffff1681526020016001820180546101a790610b92565b80601f01602080910402602001604051908101604052809291908181526020018280546101d390610b92565b80156102205780601f106101f557610100808354040283529160200191610220565b820191906000526020600020905b81548152906001019060200180831161020357829003601f168201915b505050505081526020016002820154815250508152602001906001019061011e565b50505050905090565b42610384600360003373ffffffffffffffffffffffffffffffffffffffff1673ffffffffffffffffffffffffffffffffffffffff168152602001908152602001600020546102999190610abe565b106102d9576040517f08c379a00000000000000000000000000000000000000000000000000000000081526004016102d09061098c565b60405180910390fd5b42600360003373ffffffffffffffffffffffffffffffffffffffff1673ffffffffffffffffffffffffffffffffffffffff16815260200190815260200160002081905550600160008082825461032f9190610abe565b92505081905550600260405180606001604052803373ffffffffffffffffffffffffffffffffffffffff16815260200183815260200142815250908060018154018082558091505060019003906000526020600020906003020160009091909190915060008201518160000160006101000a81548173ffffffffffffffffffffffffffffffffffffffff021916908373ffffffffffffffffffffffffffffffffffffffff16021790555060208201518160010190805190602001906103f5929190610587565b50604082015181600201555050606460015444426104139190610abe565b61041d9190610abe565b6104279190610bf5565b600181905550603260015411610534576000655af3107a4000905047811115610485576040517f08c379a000000000000000000000000000000000000000000000000000000000815260040161047c9061094c565b60405180910390fd5b60003373ffffffffffffffffffffffffffffffffffffffff16826040516104ab90610915565b60006040518083038185875af1925050503d80600081146104e8576040519150601f19603f3d011682016040523d82523d6000602084013e6104ed565b606091505b5050905080610531576040517f08c379a00000000000000000000000000000000000000000000000000000000081526004016105289061096c565b60405180910390fd5b50505b3373ffffffffffffffffffffffffffffffffffffffff167fb4fdb700724eaa1e628f65aa8f895029fc886264ea06650a9a55070720b5bda3428360405161057c9291906109c7565b60405180910390a250565b82805461059390610b92565b90600052602060002090601f0160209004810192826105b557600085556105fc565b82601f106105ce57805160ff19168380011785556105fc565b828001600101855582156105fc579182015b828111156105fb5782518255916020019190600101906105e0565b5b509050610609919061060d565b5090565b5b8082111561062657600081600090555060010161060e565b5090565b600061063d61063884610a1c565b6109f7565b90508281526020810184848401111561065557600080fd5b610660848285610b50565b509392505050565b60008135905061067781610dbd565b92915050565b600082601f83011261068e57600080fd5b813561069e84826020860161062a565b91505092915050565b6000602082840312156106b957600080fd5b60006106c784828501610668565b91505092915050565b6000602082840312156106e257600080fd5b600082013567ffffffffffffffff8111156106fc57600080fd5b6107088482850161067d565b91505092915050565b600061071d83836108a7565b905092915050565b61072e81610b14565b82525050565b600061073f82610a5d565b6107498185610a80565b93508360208202850161075b85610a4d565b8060005b8581101561079757848403895281516107788582610711565b945061078383610a73565b925060208a0199505060018101905061075f565b50829750879550505050505092915050565b60006107b482610a68565b6107be8185610a9c565b93506107ce818560208601610b5f565b6107d781610ce2565b840191505092915050565b60006107ed82610a68565b6107f78185610aad565b9350610807818560208601610b5f565b61081081610ce2565b840191505092915050565b6000610828603483610aad565b915061083382610cf3565b604082019050919050565b600061084b602683610aad565b915061085682610d42565b604082019050919050565b600061086e600083610a91565b915061087982610d91565b600082019050919050565b6000610891600883610aad565b915061089c82610d94565b602082019050919050565b60006060830160008301516108bf6000860182610725565b50602083015184820360208601526108d782826107a9565b91505060408301516108ec60408601826108f7565b508091505092915050565b61090081610b46565b82525050565b61090f81610b46565b82525050565b600061092082610861565b9150819050919050565b600060208201905081810360008301526109448184610734565b905092915050565b600060208201905081810360008301526109658161081b565b9050919050565b600060208201905081810360008301526109858161083e565b9050919050565b600060208201905081810360008301526109a581610884565b9050919050565b60006020820190506109c16000830184610906565b92915050565b60006040820190506109dc6000830185610906565b81810360208301526109ee81846107e2565b90509392505050565b6000610a01610a12565b9050610a0d8282610bc4565b919050565b6000604051905090565b600067ffffffffffffffff821115610a3757610a36610cb3565b5b610a4082610ce2565b9050602081019050919050565b6000819050602082019050919050565b600081519050919050565b600081519050919050565b6000602082019050919050565b600082825260208201905092915050565b600081905092915050565b600082825260208201905092915050565b600082825260208201905092915050565b6000610ac982610b46565b9150610ad483610b46565b9250827fffffffffffffffffffffffffffffffffffffffffffffffffffffffffffffffff03821115610b0957610b08610c26565b5b828201905092915050565b6000610b1f82610b26565b9050919050565b600073ffffffffffffffffffffffffffffffffffffffff82169050919050565b6000819050919050565b82818337600083830152505050565b60005b83811015610b7d578082015181840152602081019050610b62565b83811115610b8c576000848401525b50505050565b60006002820490506001821680610baa57607f821691505b60208210811415610bbe57610bbd610c84565b5b50919050565b610bcd82610ce2565b810181811067ffffffffffffffff82111715610bec57610beb610cb3565b5b80604052505050565b6000610c0082610b46565b9150610c0b83610b46565b925082610c1b57610c1a610c55565b5b828206905092915050565b7f4e487b7100000000000000000000000000000000000000000000000000000000600052601160045260246000fd5b7f4e487b7100000000000000000000000000000000000000000000000000000000600052601260045260246000fd5b7f4e487b7100000000000000000000000000000000000000000000000000000000600052602260045260246000fd5b7f4e487b7100000000000000000000000000000000000000000000000000000000600052604160045260246000fd5b6000601f19601f8301169050919050565b7f547279696e6720746f207769746864726177206d6f7265206d6f6e657920746860008201527f616e2074686520636f6e7472616374206861732e000000000000000000000000602082015250565b7f4661696c656420746f207769746864726177206d6f6e65792066726f6d20636f60008201527f6e74726163740000000000000000000000000000000000000000000000000000602082015250565b50565b7f576169742031356d000000000000000000000000000000000000000000000000600082015250565b610dc681610b14565b8114610dd157600080fd5b5056fea26469706673582212205bca8db2975ec00b0800a2ec402e8a267ef3cc3a350d49a1ca44bee19fd8561264736f6c63430008040033",
  "linkReferences": {},
  "deployedLinkReferences": {}
}