{
  "_format": "hh-sol-artifact-1",
  "contractName": "Squeeze",
  "sourceName": "contracts/Squeeze.sol",
  "abi": [
    {
      "inputs": [],
      "stateMutability": "nonpayable",
      "type": "constructor"
    },
    {
      "anonymous": false,
      "inputs": [
        {
          "indexed": true,
          "internalType": "address",
          "name": "from",
          "type": "address"
        },
        {
          "indexed": false,
          "internalType": "uint256",
          "name": "timestamp",
          "type": "uint256"
        },
        {
          "indexed": false,
          "internalType": "string",
          "name": "message",
          "type": "string"
        }
      ],
      "name": "NewSqueeze",
      "type": "event"
    },
    {
      "inputs": [],
      "name": "getAllSqueezes",
      "outputs": [
        {
          "components": [
            {
              "internalType": "address",
              "name": "squeezer",
              "type": "address"
            },
            {
              "internalType": "string",
              "name": "message",
              "type": "string"
            },
            {
              "internalType": "uint256",
              "name": "timestamp",
              "type": "uint256"
            }
          ],
          "internalType": "struct Squeeze.Squeeze[]",
          "name": "",
          "type": "tuple[]"
        }
      ],
      "stateMutability": "view",
      "type": "function"
    },
    {
      "inputs": [],
      "name": "getTotalSqueezes",
      "outputs": [
        {
          "internalType": "uint256",
          "name": "",
          "type": "uint256"
        }
      ],
      "stateMutability": "view",
      "type": "function"
    },
    {
      "inputs": [
        {
          "internalType": "string",
          "name": "_message",
          "type": "string"
        }
      ],
      "name": "squeeze",
      "outputs": [],
      "stateMutability": "nonpayable",
      "type": "function"
    }
  ],
  "bytecode": "0x608060405234801561001057600080fd5b50610928806100206000396000f3fe608060405234801561001057600080fd5b50600436106100415760003560e01c8063a98ddb6c14610046578063d9f80e6614610064578063de28439214610082575b600080fd5b61004e61009e565b60405161005b9190610616565b60405180910390f35b61006c6100a7565b60405161007991906105f4565b60405180910390f35b61009c6004803603810190610097919061043b565b6101f8565b005b60008054905090565b60606001805480602002602001604051908101604052809291908181526020016000905b828210156101ef57838290600052602060002090600302016040518060600160405290816000820160009054906101000a900473ffffffffffffffffffffffffffffffffffffffff1673ffffffffffffffffffffffffffffffffffffffff1673ffffffffffffffffffffffffffffffffffffffff168152602001600182018054610154906107f1565b80601f0160208091040260200160405190810160405280929190818152602001828054610180906107f1565b80156101cd5780601f106101a2576101008083540402835291602001916101cd565b820191906000526020600020905b8154815290600101906020018083116101b057829003601f168201915b50505050508152602001600282015481525050815260200190600101906100cb565b50505050905090565b600160008082825461020a919061071d565b92505081905550600160405180606001604052803373ffffffffffffffffffffffffffffffffffffffff16815260200183815260200142815250908060018154018082558091505060019003906000526020600020906003020160009091909190915060008201518160000160006101000a81548173ffffffffffffffffffffffffffffffffffffffff021916908373ffffffffffffffffffffffffffffffffffffffff16021790555060208201518160010190805190602001906102d0929190610330565b506040820151816002015550503373ffffffffffffffffffffffffffffffffffffffff167fb4fdb700724eaa1e628f65aa8f895029fc886264ea06650a9a55070720b5bda34283604051610325929190610631565b60405180910390a250565b82805461033c906107f1565b90600052602060002090601f01602090048101928261035e57600085556103a5565b82601f1061037757805160ff19168380011785556103a5565b828001600101855582156103a5579182015b828111156103a4578251825591602001919060010190610389565b5b5090506103b291906103b6565b5090565b5b808211156103cf5760008160009055506001016103b7565b5090565b60006103e66103e184610686565b610661565b9050828152602081018484840111156103fe57600080fd5b6104098482856107af565b509392505050565b600082601f83011261042257600080fd5b81356104328482602086016103d3565b91505092915050565b60006020828403121561044d57600080fd5b600082013567ffffffffffffffff81111561046757600080fd5b61047384828501610411565b91505092915050565b60006104888383610586565b905092915050565b61049981610773565b82525050565b60006104aa826106c7565b6104b481856106ea565b9350836020820285016104c6856106b7565b8060005b8581101561050257848403895281516104e3858261047c565b94506104ee836106dd565b925060208a019950506001810190506104ca565b50829750879550505050505092915050565b600061051f826106d2565b61052981856106fb565b93506105398185602086016107be565b610542816108e1565b840191505092915050565b6000610558826106d2565b610562818561070c565b93506105728185602086016107be565b61057b816108e1565b840191505092915050565b600060608301600083015161059e6000860182610490565b50602083015184820360208601526105b68282610514565b91505060408301516105cb60408601826105d6565b508091505092915050565b6105df816107a5565b82525050565b6105ee816107a5565b82525050565b6000602082019050818103600083015261060e818461049f565b905092915050565b600060208201905061062b60008301846105e5565b92915050565b600060408201905061064660008301856105e5565b8181036020830152610658818461054d565b90509392505050565b600061066b61067c565b90506106778282610823565b919050565b6000604051905090565b600067ffffffffffffffff8211156106a1576106a06108b2565b5b6106aa826108e1565b9050602081019050919050565b6000819050602082019050919050565b600081519050919050565b600081519050919050565b6000602082019050919050565b600082825260208201905092915050565b600082825260208201905092915050565b600082825260208201905092915050565b6000610728826107a5565b9150610733836107a5565b9250827fffffffffffffffffffffffffffffffffffffffffffffffffffffffffffffffff0382111561076857610767610854565b5b828201905092915050565b600061077e82610785565b9050919050565b600073ffffffffffffffffffffffffffffffffffffffff82169050919050565b6000819050919050565b82818337600083830152505050565b60005b838110156107dc5780820151818401526020810190506107c1565b838111156107eb576000848401525b50505050565b6000600282049050600182168061080957607f821691505b6020821081141561081d5761081c610883565b5b50919050565b61082c826108e1565b810181811067ffffffffffffffff8211171561084b5761084a6108b2565b5b80604052505050565b7f4e487b7100000000000000000000000000000000000000000000000000000000600052601160045260246000fd5b7f4e487b7100000000000000000000000000000000000000000000000000000000600052602260045260246000fd5b7f4e487b7100000000000000000000000000000000000000000000000000000000600052604160045260246000fd5b6000601f19601f830116905091905056fea2646970667358221220d1b225e255ff1b8c19ce4d2335ed30be83776f2052c5d453d6b025c90de56f2f64736f6c63430008040033",
  "linkReferences": {},
  "deployedLinkReferences": {}
}